S01400004D617A655F736F6C76696E672E7372656322
S11300000C9435000C9452000C9452000C94520041
S11300100C9452000C9452000C9452000C94520014
S11300200C9452000C94C1040C9452000C94520091
S11300300C9452000C9452000C9452000C945200F4
S11300400C9452000C9452000C9452000C945200E4
S11300500C9452000C9452000C9452000C945200D4
S11300600C9452000C9452009B0511241FBECFEF38
S1130070D8E0DEBFCDBF11E0A0E0B1E0EAE3F9E1F2
S113008002C005900D92AC31B107D9F722E0ACE182
S1130090B1E001C01D92A734B207E1F70E948700C6
S11300A00C94900C0C940000CF93DF9380ED97E0B8
S11300B00E94970580E10E94AA0488EE93E00E94C2
S11300C00905CCEEDFEFC832D10538F068ED7FEFDB
S11300D088E290E00E947B0406C068E270E088ED4C
S11300E09FEF0E947B0481E00E945B0584E190E025
S11300F00E9409052196CC33D10529F760E070E010
S113010080E090E00E947B04DF91CF9108950E94EB
S113011054000E94F100FFCF811106C0411106C0B6
S1130120611106C082E408958CE4089583E508957E
S113013082E50895CF93DF9320917601233008F46C
S11301404DC0C22FD0E0FE01EB58FE4F80818234B7
S113015009F044C0AE01FA01E858FE4F4C585E4F16
S113016060E070E092919C3441F0923519F0923441
S113017049F406C0665A7F4F05C0625F7E4F02C0D5
S11301806C547F4FE417F50769F7CB0168E671E01B
S11301900E94BB0A8A35910581F01CF4892BD9F49D
S11301A007C0843B910571F08E30914081F013C0FB
S11301B0CC58DE4F83E588830EC0CC58DE4F82E5F1
S11301C0888309C0CC58DE4F82E4888304C0CC58AD
S11301D0DE4F8CE48883225020937601DF91CF9107
S11301E00895CF93DF93CDB7DEB72A970FB6F8946F
S11301F0DEBF0FBECDBF10E00E94B70162E370E026
S113020082E390E00E947B0482E390E00E9409056F
S113021061E0CE0101960E94610501E089819A8125
S11302208536910508F4012FFF24F39489859A8576
S11302308536910508F4F12E68E270E088E290E0DA
S11302400E947B0488EC90E00E9409058B819C81CC
S1130250893C910568F42D813E81293C310550F497
S113026041E02F813885293C310528F4412F03C012
S113027041E001C041E08935924050F08D819E817A
S11302808935924028F08F8198858935924048F4C9
S11302906F2D802F0E948C000E9465020E949A009C
S11302A0ABCF0F2EF0ED8F2EF7E09F2EA12CB12CAB
S11302B0F02D1DC00E944105A50194010E94CF0AA2
S11302C0683E73408105910570F40E9493038DE0AC
S11302D091E00E94A20361E080E00E94C50384E1F2
S11302E091E00E94A2038EE190E00E94090580E162
S11302F00E94BE048111DECF80E10E94BE04811100
S1130300FBCF88EE93E00E94090580917601882353
S113031059F10F2EF7E7EF2EF1E0FF2EF02D00E05C
S113032010E00E94B70162E370E082E390E00E9473
S11303307B0482E390E00E94090568E270E088E2B1
S113034090E00E947B0488EC90E00E940905F7018C
S113035081917F010E9465020F5F1F4F809176019A
S113036090E008171907ECF20E94B701C0CF2F9252
S11303703F924F925F926F927F928F929F92AF9231
S1130380BF92CF92DF92EF92FF920F931F93CF937E
S1130390DF93CDB7DEB72A970FB6F894DEBF0FBE52
S11303A0CDBF00E010E0812C912C54010F2EF0E120
S11303B04F2EF7E25F2E612C712CF02D0F2EF4E1FD
S11303C0CF2ED12CF02D0F2EF4EC3F2EF02D222425
S11303D02A9461E0CE0101960E946105805D9740F8
S11303E07C01092E000CAA0BBB0B880E991EAA1EB9
S11303F0BB1EC701801B910B8C01000F111F080F3E
S1130400191F112314F40F5F1F4F15950795C5018C
S1130410B401A30192010E94F10A200F311FC70108
S1130420B6010E94BB0A260F371F2D33310514F085
S11304302CE330E0C901843C2FEF920714F4832DA0
S1130440922D992334F46CE370E0CC960E947B04E3
S113045008C06CE370E0681B790B8CE390E00E94A9
S11304607B048B819C818436910550F48D819E811F
S11304708436910528F48F8198858436910550F04F
S113048089819A81893C910538F489859A85893CCA
S1130490910510F487019DCF2A960FB6F894DEBF1C
S11304A00FBECDBFDF91CF911F910F91FF90EF90C1
S11304B0DF90CF90BF90AF909F908F907F906F9080
S11304C05F904F903F902F9008958C3429F082359F
S11304D071F0823409F516C060E570E080EB9FEF9F
S11304E00E947B0488EC90E00E940905089560EB6B
S11304F07FEF80E590E00E947B0488EC90E00E940E
S11305000905089560EB7FEF80E590E00E947B048D
S113051080E991E00E940905089581E090E06F93DD
S113052064E06A95F1F76F910197C9F708950F9305
S11305301F93CF93DF931AB157985A98289AC0E023
S1130540D0E00E948D025C9A0E948D0209B15C98F1
S11305500E948D025C9A0E948D025C98249607FF8B
S113056010C0AE0160E070E080911C0190911D010B
S1130570A0911E01B0911F01481759076A077B0714
S113058000F31AB9DF91CF911F910F91089595B19E
S1130590282F217030E0220F331F482F467068E067
S11305A0469FA0011124242B9D7C292B25B99BB1A6
S11305B088708295807F9F77892B8BB95C9A0E9483
S11305C08D025C980E948D020895A0E0B0E0EBEEED
S11305D0F2E00C942E0BC82FD62EE42E80913F020D
S11305E0811105C081E080933F020E942B030E9489
S11305F0970214B1D5B1FAB00BB12898DD2011F0EF
S11306005A9A01C05A9894B1926394B9579A81E066
S1130610E81629F08C2F82958F700E94C7028C2FC8
S11306208F700E94C702FAB80BB914B9D5B9CDB707
S1130630DEB7E7E00C944A0B42E060E00E94E5027A
S1130640089542E061E00E94E502089541E060E01F
S11306500E94E502089580E197E2A0E0B0E0809373
S11306601C0190931D01A0931E01B0931F01529A87
S1130670209A549A8EE190E00E94090583E00E943A
S1130680260386E090E00E94090583E00E94260389
S113069082E090E00E94090583E00E94260382E044
S11306A090E00E94090582E00E94260382E090E027
S11306B00E94090588E20E941C0388E00E941C0332
S11306C081E00E941C0386E00E941C038CE00E94CF
S11306D01C03089581E00E941C03809122019091E3
S11306E02301892BF9F060E0A0E2262F30E070911D
S11306F000018091010190E00197789FA001799F0A
S1130700500D1124241735074CF4E0912201F09187
S11307102301E20FF31FA0836F5FE7CF1092200144
S11307201092210108950E946A030895CF93DF93E4
S1130730EC018991882319F00E942103FACFDF91FB
S1130740CF9108950E9496030895A5E0B0E0EBEAE6
S1130750F3E00C94320B182F80E8898380EC8A83B1
S113076084E98B8384ED8C83FE01E60FF11D818186
S1130770810F6D830E941C03109320016D8160938F
S113078021012596E3E00C944E0B0E94A5030895E5
S1130790883058F491E001C0990F8A95EAF7892FBF
S11307A0AAE2B0E0EBE2F0E021C08E3060F498EF12
S11307B0980F81E001C0880F9A95EAF7A4E2B0E0AF
S11307C0E5E2F0E013C0853160F492EF980F81E028
S11307D001C0880F9A95EAF7A7E2B0E0E8E2F0E0FA
S11307E005C080E0A0E0B0E0E0E0F0E06F3F19F485
S11307F09081982709C0662319F09081982B04C032
S11308002081982F9095922390839C91982B9C9370
S1130810089583EF8093B00084BD82E08093B1009B
S113082085BD1092B4001092B30018BC17BC60E0F0
S113083086E00E94C80360E085E00E94C80360E08F
S11308408BE00E94C80360E083E00E94C80308951F
S113085080914002811105C081E0809340020E9492
S113086009040895CF93DF93EC010E942804D7FF75
S113087005C0D195C195D10981E001C080E0CF3F89
S1130880D10519F014F0CFEFD0E0882319F018BC8B
S1130890C7BD02C0C8BD17BCDF91CF910895CF93E7
S11308A0DF93EC010E942804D7FF05C0D195C195C0
S11308B0D10981E001C080E0CF3FD10519F014F0E7
S11308C0CFEFD0E0882329F01092B400C093B30096
S11308D004C0C093B4001092B300DF91CF91089587
S11308E0CF93DF93EB010E943204CE010E944F04A8
S11308F0DF91CF9108950E947004089584B18D7C96
S113090084B985B1826385B985E090E06F9364E032
S11309106A95F1F76F910197C9F7089580914102A3
S1130920811105C081E0809341020E947E040895F4
S1130930CF93C82F0E948E0483B18C23E9F38AE0FD
S113094090E00E94090583B18C23B1F383B18C2319
S1130950CF9108950E9498040895A1E0B0E0E3EBDC
S1130960F4E00C94330B89830E948E0493B1909528
S1130970898189232196E2E00C944F0B0E94AD04F7
S113098008952F928F939F932FB680912B0190916E
S11309902C01019680932B0190932C0190E080917F
S11309A02D01891F80932D01909125019C5F9093C7
S11309B025018091240180519742C0F09093250134
S11309C080932401809126019091270101968093C0
S11309D026019093270190E080912801891F80933C
S11309E0280180912901891F809329012FBE9F919D
S11309F08F912F90189528EE33E0019748F0F90174
S1130A006F9364E06A95F1F76F913197C9F7F5CF69
S1130A1008950E94FB040895E0E7F0E080818E7F52
S1130A208083A0EBB0E08C9183608C93A1EBB0E069
S1130A308C91807F8C938C9182608C93B89A808106
S1130A40816080837894089580914202811105C069
S1130A5081E0809342020E940C0508950E942405BF
S1130A60E0E7F0E080818E7F8083609126017091C1
S1130A702701809128019091290120812160208300
S1130A8008950E942E0508950E942405E0E7F0E0F1
S1130A9080818E7F8083109226011092270110920C
S1130AA028011092290110922501109224018081BD
S1130AB0816080830895682F8EE291E00E9443094B
S1130AC00895462F20E0BC018EE291E00E94140AB2
S1130AD008950F93CF93DF9300D000D01F92CDB72A
S1130AE0DEB79C0185E0E8E0F1E0DE0111960190BB
S1130AF00D928A95E1F7662311F00FEF01C003E12F
S1130B0045E0BE016F5F7F4F8EE291E00E943B069D
S1130B108EE291E00E9412060E9444050F900F900D
S1130B200F900F900F90DF91CF910F91089560E097
S1130B300E94690508958EE291E00E94890A089551
S1130B406F9364E06A95F1F76F910197C9F708957F
S1130B50FC01118210821382128215821482168281
S1130B60683068F489E290E0918380838BE290E0BE
S1130B70938382838AE290E0958384831FC06E30DE
S1130B8070F483E290E09183808385E290E0938324
S1130B90828384E290E09583848368500FC065313A
S1130BA098F486E290E09183808388E290E09383D6
S1130BB0828387E290E0958384836E5081E001C054
S1130BC0880F6A95EAF786830895A7E0B0E0EBEE14
S1130BD0F5E00C94310B8C01FC011182108213821C
S1130BE012821582148217821682613118F080E114
S1130BF0808702C0FC016087F801208B642FCE013E
S1130C0001960E94A8058F81F80181878B819C81C0
S1130C10938782878D819E81958784872796E4E0D8
S1130C200C944D0BFC01A485B585109779F08C913B
S1130C309185892B8C93A285B3859C918185809520
S1130C4089238C9388EC90E00E94A0050895FC0110
S1130C50A485B585109771F08C919185892B8C931F
S1130C60A285B3858C919185892B8C9388EC90E037
S1130C700E94A0050895A7E0B0E0E1E4F6E00C943A
S1130C80260B7C014B01642F3901402F20E00E9488
S1130C90E50587010F5B1F4FF80110826701F2E43D
S1130CA0CF0ED11CF60110825701F3E4AF0EB11C34
S1130CB0F5011082F70177866686512CF70180854D
S1130CC0581650F5652C712CF401E60DF71D608162
S1130CD0CE0101960E94A8052F81F701E60DF71DAC
S1130CE0218B89819A81F301EE0FFF1FEE0DFF1D09
S1130CF092A381A38332910511F4F80108C08632CE
S1130D00910511F4F60103C0899721F4F50180815E
S1130D10822B80835394D2CF2796EFE00C94420B1E
S1130D20A0E0B0E0E6E9F6E00C94280BEC015B01EE
S1130D306C0181E4C80ED11CF60180807E01F2E4CE
S1130D40EF0EF11CF70170808E010D5B1F4FF8014F
S1130D50908080E09885891748F4F501E80FF11D2B
S1130D60E80FF11D118210828F5FF4CF84B1F60178
S1130D709081892B84B987B1F7019081892B87B938
S1130D808AB1F8019081892B8AB985B1F6019081E5
S1130D90892B85B988B1F7019081892B88B98BB1EA
S1130DA0F8019081892B8BB98AE090E00E94A0051C
S1130DB094B1F60180818095892384B997B1F701B4
S1130DC080818095892387B99AB1F80180818095C3
S1130DD089238AB995B1F60180818095892385B9E3
S1130DE098B1F70180818095892388B99BB1F80176
S1130DF08081809589238BB9E090B000D090B100B8
S1130E008091B00083608093B00082E08093B10051
S1130E104091B20080E090E02E853F8582179307D1
S1130E2020F5C090B2002C2D241B820F911D03B11C
S1130E30081132C0F6B0F7102FC029B129112CC007
S1130E4010C0212F30E0A901440F551FF501E40F14
S1130E50F51F60817181672B21F11F5F28851217AF
S1130E6080F37F2C802E4C2DD7CFE092B000D0920F
S1130E70B10020E08885281730F5F501E20FF11D57
S1130E80E20FF11D80819181892B21F48E859F854C
S1130E90918380832F5FEECF03B1F6B099B010E059
S1130EA0DDCFDE01A40FB51F91960D90BC91A02D4E
S1130EB04C91DE01A20FB31F51962C91422369F687
S1130EC091838083CACFCDB7DEB7EDE00C94440B99
S1130ED0EF92FF920F931F93CF93DF93FC019B013B
S1130EE0F0907C0000917A0047B118B180917A00AB
S1130EF086FDFCCF80E09085891748F4D901A80FBE
S1130F00B11DA80FB11D1D921C928F5FF4CF97B134
S1130F1082A18095892387B998B182A1809589237C
S1130F2088B987E880937A00E12C81A1E81610F053
S1130F30E12C29C050E08085581718F5A52FB0E0A2
S1130F40EF01CA0FDB1F8989806480937C00809144
S1130F507A00806480937A0080917A0086FDFCCFC9
S1130F606091780070917900AA0FBB1FA20FB31F84
S1130F708D919C911197860F971F8D939C935F5F22
S1130F80DACFE394D2CF8085E816A0F4E901CE0D40
S1130F90D11DCE0DD11D61A170E0CB019595879532
S1130FA0A881B9818A0F9B1F0E94A70A798368834D
S1130FB0E394E9CFF0927C0000937A0018B947B922
S1130FC0CDB7DEB7E6E00C944B0BA0E2B0E0EBEE5D
S1130FD0F7E00C942E0B8C017B01D42E8FEF840F41
S1130FE0823018F4C8010E942706D80150968C91CB
S1130FF0B701811110C0C8010E949006C8010E9467
S11310001206B2E0DB123AC0BE016F5F7F4FC80127
S11310100E9490060FC0C8010E946807C8010E9480
S11310201206E2E0DE122AC0BE016F5F7F4FC801E4
S11310300E94680740E0F80180854817F8F4842F7F
S113104090E0880F991FF701E80FF91F21E030E0C5
S11310502C0F3D1F820F931FD8011E962D913C919A
S11310601F97DC018D919C91281B390B8081918104
S1131070820F931F918380834F5FDDCFA096E7E0BB
S11310800C944A0B2F923F925F926F927F928F92B1
S11310909F92AF92BF92CF92DF92EF92FF920F9303
S11310A01F93CF93DF93CDB7DEB7C056D1090FB6E8
S11310B0F894DEBF0FBECDBF8C014B015A01522EF6
S11310C0DA018D919C91892B31F0F4018081918119
S11310D0892BF1F424C0D80118968C9190E0880FE4
S11310E0991F0E946F0BF50191838083009709F487
S11310F0B1C0FC0120E030E0D80118968C9190E05A
S11311002817390714F7119211922F5F3F4FF4CF2C
S1131110E12CF12C6E01B1E2CB0ED11C21C0F801FF
S1131120808590E0880F991F0E946F0BD4018D93E6
S11311309C93009709F48EC0FC0120E030E0D801B4
S113114018968C9190E02817390714F7D8011E9649
S11311508D919C911F97819391932F5F3F4FEFCF78
S1131160452DBE016F5B7F4FC8010E94E507F80162
S11311706084712CFE01EF5BFF4FC6019E012F5F5F
S11311803F4F190120E030E0261537054CF5E114F6
S1131190F10489F0DC016D917C91408151816417E7
S11311A0750748F0D1016D917C91408151814617BA
S11311B0570748F00DC040815181DC014D935C9389
S11311C0E114F10479F740815181D1014D935C938D
S11311D02F5F3F4FB2E02B0E311C32960296D4CFD4
S11311E0EFEFEE1AFE0AFAE0EF16F10409F0B8CFB9
S11311F09E012F5F3F4F7901360180E090E0F801B6
S1131200208530E0821793072CF5D7012D913D916D
S11312107D01B3016C197D09D501ED91FC91E60FB7
S1131220F71F408151814217530710F43183208303
S1131230F301219131913F01D401ED91FC91E60F2D
S1131240F71F408151812417350710F4318320831F
S11312500196D5CFC05ADF4F0FB6F894DEBF0FBE4C
S1131260CDBFDF91CF911F910F91FF90EF90DF9051
S1131270CF90BF90AF909F908F907F906F905F9032
S11312803F902F9008951F93CF93DF93EC01162F77
S11312908FEF860F823018F0662359F014C021E0D6
S11312A0AE014E5F5F4FBE01CE010E944208123074
S11312B051F4AE014A5F5F4FBE016C5F7F4F20E087
S11312C0CE010E944208DF91CF911F910895A0E0C2
S11312D0B0E0EDE6F9E00C942C0BEC018B01B42E9C
S11312E0842F8D7F51F48C819D81892B09F497C0C3
S11312F08E819F81892B09F492C08FEF8B0D8230F0
S113130050F488819981892B09F489C08A819B8151
S1131310892B09F484C04B2DB801CE010E94E50746
S1131320780100E010E0C12CD12C888590E0C8162B
S1131330D9060CF074C081E0B8120AC0EA81FB81BE
S1131340E00FF11F0190F081E02DA881B9810DC05B
S11313508C819D812E813F81B1100CC0F901E00F79
S1131360F11F0190F081E02DDC01A00FB11F8D91E0
S11313709C9128C0FC01E00FF11F40815181E8815C
S1131380F981E00FF11F80819181EE85FF85481777
S1131390590710F4CF0104C08E0F9F1F841B950BB7
S11313A0D901A00FB11F2D913C91AA81BB81A00F3F
S11313B0B11F4D915C912417350720F0E40FF51F00
S11313C0E21BF30BE81BF90BA9F0D7012D913C911B
S11313D040E050E0281B390B41095109A8EEB3E065
S11313E00E94100B9F0140E050E00E94F10A37FD7B
S11313F00AC002C020E030E0293EB3E03B072CF0F5
S113140028EE33E002C020E030E0F701219331936D
S11314107F01FFEFCF1ADF0A0E5F1F4F86CFCDB7D4
S1131420DEB7E9E00C94480BA0E0B0E0EAE1FAE0B2
S11314300C94230BEC018B01822E0E9467092884F3
S1131440E801412C512C320100E010E0C12CD12CD8
S11314507601312C912C58EEA52E53E0B52E921422
S113146021F1E991F991882021F0C5018E1B9F0B90
S1131470FC01E93CF10524F4E333F10574F002C006
S113148033243394DF01A30192010E941B0BC60E87
S1131490D71EE81EF91E0E0F1F1F939498EE490ED7
S11314A093E0591E611C711CDACF31101EC0492D06
S11314B050E04150510924EF31E0429FC001439F65
S11314C0900D529F900D112420917201309173015F
S11314D028173907B4F088EE93E0489F9001499F9C
S11314E0300D589F300D11240EC0980140E050E09B
S11314F0C701B6010E94CF0A309373012093720191
S113150002C020E030E0C901CDB7DEB7E2E10C94BF
S11315103F0BCF93DF93EC018A819B81009711F0FD
S11315200E94070C8E819F81009711F00E94070C86
S113153088819981009711F00E94070C8C819D810C
S1131540009711F00E94070CDF91CF910895AA1B18
S1131550BB1B51E107C0AA1FBB1FA617B70710F09A
S1131560A61BB70B881F991F5A95A9F780959095CC
S1131570BC01CD01089597FB072E16F4009407D003
S113158077FD09D00E94A70A07FC05D03EF4909588
S113159081959F4F0895709561957F4F0895A1E2BD
S11315A01A2EAA1BBB1BFD010DC0AA1FBB1FEE1FD9
S11315B0FF1FA217B307E407F50720F0A21BB30B24
S11315C0E40BF50B661F771F881F991F1A9469F7A0
S11315D060957095809590959B01AC01BD01CF01FC
S11315E00895052E97FB1EF400940E94080B57FDE6
S11315F007D00E94CF0A07FC03D04EF40C94080BCA
S113160050954095309521953F4F4F4F5F4F08952A
S113161090958095709561957F4F8F4F9F4F08955A
S11316200E94600BA59F900DB49F900DA49F800D08
S1131630911D11240895B7FF0C94100B0E94100BF8
S1131640821B930B08952F923F924F925F926F9259
S11316507F928F929F92AF92BF92CF92DF92EF923E
S1131660FF920F931F93CF93DF93CDB7DEB7CA1BBF
S1131670DB0B0FB6F894DEBF0FBECDBF09942A88EA
S1131680398848885F846E847D848C849B84AA8492
S1131690B984C884DF80EE80FD800C811B81AA811F
S11316A0B981CE0FD11D0FB6F894DEBF0FBECDBFEA
S11316B0ED010895EE0FFF1F0590F491E02D0994BC
S11316C0A29FB001B39FC001A39F700D811D11247F
S11316D0911DB29F700D811D1124911D08950F93CA
S11316E01F93CF93DF938230910510F482E090E052
S11316F0E0914502F091460220E030E0A0E0B0E045
S1131700309719F14081518102811381481759079B
S1131710C8F08417950769F4109731F012960C936A
S1131720129713961C9327C0009345021093460208
S113173022C02115310519F04217530718F49A01F4
S1131740BD01EF01DF01F801DBCF21153105F9F00F
S1131750281B390B2430310580F48A819B81611563
S1131760710521F0FB019383828304C090934602A8
S113177080934502FE01329644C0FE01E20FF31F3E
S11317808193919322503109398328833AC020915F
S1131790430230914402232B41F4209104013091FF
S11317A005013093440220934302209102013091B9
S11317B003012115310541F42DB73EB740910601CF
S11317C050910701241B350BE0914302F091440230
S11317D0E217F307A0F42E1B3F0B2817390778F004
S11317E0AC014E5F5F4F2417350748F04E0F5F1F63
S11317F050934402409343028193919302C0E0E0EA
S1131800F0E0CF01DF91CF911F910F910895CF9315
S1131810DF93009709F481C0FC013297138212828E
S1131820A0914502B0914602109781F42081318144
S1131830820F931F209143023091440228173907E5
S113184051F5F0934402E093430267C0ED0120E0B8
S113185030E0CE17DF0740F44A815B819E014115D9
S11318605105F1F0EA01F5CFD383C2834081518160
S1131870840F951FC817D90759F488819981840F5B
S1131880951F0296918380838A819B8193838283AF
S11318902115310529F4F0934602E09345023DC039
S11318A0E901FB83EA8349915991C40FD51FEC17D1
S11318B0FD0761F480819181840F951F0296E901EF
S11318C099838883828193819B838A83E0E0F0E01B
S11318D012968D919C911397009719F0FD01DC01EC
S11318E0F7CF8D919C9111979D012E5F3F4F820FF1
S11318F0931F20914302309144022817390769F459
S1131900309729F4109246021092450202C01382C5
S11319101282B0934402A0934302DF91CF910895C1
S113192010E0C4E3D0E004C0FE010E945A0B2196EB
S10D1930C533D107C9F7F894FFCFBF
S113193A08020000470220000E0F101112736F6C88
S10F194A766564005072657373204200DF
S9030000FC
