S01400004D617A655F736F6C76696E672E7372656322
S11300000C947F020C949C020C949C020C949C0211
S11300100C949C020C949C020C949C020C949C02E4
S11300200C949C020C94870A0C949C020C949C02E1
S11300300C949C020C94E0070C949C020C949C027B
S11300400C949C020C949C020C949C020C949C02B4
S11300500C949C020C949C020C949C020C949C02A4
S11300600C949C020C949C02763132204C31362044
S11300706F35206565726572636538673872383C20
S11300806738723863382E3C6772383C65382E3CCA
S113009061383C62383C622D3C61383C672E652EE9
S11300A0672E6138666772653863643C62382E6314
S11300B0382E3C6772383C65382E3C61383C6238D7
S11300C03C622D3C61383C672E652E672E61386694
S11300D06772653863643C62382E723867662366DB
S11300E064233865723C67233C6163723C616364DA
S11300F072386766236664233865723E63383E63EC
S11301003E633472386766236664233865723C67DD
S1130110233C6163723C6163647238652D38726498
S1130120382E633420763132204C3136206F35201E
S11301306565726572636538673872383C67387212
S11301403863382E3C6772383C65382E3C61383C45
S113015062383C622D3C61383C672E652E672E6107
S113016038666772653863643C62382E63382E3CA7
S11301706772383C65382E3C61383C62383C622DED
S11301803C61383C672E652E672E61386667726560
S11301903863643C62382E72386766236664233899
S11301A065723C67233C6163723C616364723867C7
S11301B066236664233865723E63383E633E633467
S11301C072386766236664233865723C67233C6132
S11301D063723C6163647238652D387264382E63CF
S11301E03420763132204C3136206F3520656572EB
S11301F06572636538673872383C673872386338BB
S11302002E3C6772383C65382E3C61383C62383C81
S1130210622D3C61383C672E652E672E6138666717
S113022072653863643C62382E63382E3C677238DA
S11302303C65382E3C61383C62383C622D3C613868
S11302403C672E652E672E61386667726538636475
S11302503C62382E72386766236664233865723CC4
S113026067233C6163723C6163647238676623662A
S113027064233865723E63383E633E633472386784
S113028066236664233865723C67233C6163723C71
S11302906163647238652D387264382E6334207655
S11302A03132204C3136206F3520656572657263BA
S11302B06538673872383C6738723863382E3C6763
S11302C072383C65382E3C61383C62383C622D3CC7
S11302D061383C672E652E672E6138666772653813
S11302E063643C62382E63382E3C6772383C653850
S11302F02E3C61383C62383C622D3C61383C672EB0
S1130300652E672E6138666772653863643C6238AF
S11303102E72386766236664233865723C67233C13
S11303206163723C61636472386766236664233870
S113033065723E63383E633E633472386766236693
S113034064233865723C67233C6163723C61636477
S11303507238652D387264382E6334207631322039
S11303604C3136206F352065657265726365386778
S11303703872383C6738723863382E3C6772383CC0
S113038065382E3C61383C62383C622D3C61383C17
S1130390672E652E672E6138666772653863643C24
S11303A062382E63382E3C6772383C65382E3C61C7
S11303B0383C62383C622D3C61383C672E652E67C0
S11303C02E6138666772653863643C62382E723811
S11303D06766236664233865723C67233C616372F5
S11303E03C61636472386766236664233865723ED1
S11303F063383E633E633472386766236664233829
S113040065723C67233C6163723C61636472386566
S11304102D387264382E633420763132204C3136D4
S1130420206F352065657265726365386738723888
S11304303C6738723863382E3C6772383C65382E16
S11304403C61383C62383C622D3C61383C672E6527
S11304502E672E6138666772653863643C62382E95
S113046063382E3C6772383C65382E3C61383C62F8
S1130470383C622D3C61383C672E652E672E61380E
S1130480666772653863643C62382E723867662327
S11304906664233865723C67233C6163723C616324
S11304A06472386766236664233865723E63383E37
S11304B0633E633472386766236664233865723C2E
S11304C067233C6163723C6163647238652D3872E2
S11304D064382E633400566976656B20502E0050C4
S11304E0726F6A6563742062793A00536F6C76693F
S11304F06E6700337069204D617A6500610B1124C9
S11305001FBECFEFD8E0DEBFCDBF11E0A0E0B1E069
S1130510EEEDF4E202C005900D92A034B107D9F7D4
S113052022E0A0E4B1E001C01D92A437B207E1F7D4
S11305300E940C030C9462120C940000CF93DF937E
S113054080ED97E00E945D0B83EF94E00E946809C0
S113055061E080E00E948B098BEE94E00E946809C0
S113056080ED97E00E94CF0A0E9448098FED94E045
S11305700E94680961E080E00E948B0986ED94E0A6
S11305800E94680988E690E00E943F0880ED97E0A9
S11305900E94CF0A0AC00E9448098FE291E00E949B
S11305A0570984E690E00E94CF0A80E10E94840A01
S11305B0882389F380E10E94700A88EE93E00E9408
S11305C0CF0ACCEEDFEFC832D10538F068ED7FEF0B
S11305D088E290E00E94410A06C068E270E088ED7B
S11305E09FEF0E94410A81E00E94210B84E190E088
S11305F00E94CF0A2196CC33D10529F760E070E040
S113060080E090E00E94410A80E10E94700A0E940A
S11306104809DF91CF9108950E949E020E947603BB
S1130620FFCF811106C0411106C0611106C082E4EA
S113063008958CE4089583E5089582E50895CF93A1
S1130640DF9320916B02233008F44DC0C22FD0E019
S1130650FE01EF55FE4F8081823409F044C0AE01A3
S1130660FA01ED55FE4F40565E4F60E070E0929106
S11306709C3441F0923519F0923449F406C0665A1C
S11306807F4F05C0625F7E4F02C06C547F4FE417FA
S1130690F50769F7CB0168E671E00E948D108A3591
S11306A0910581F01CF4892BD9F407C0843B910592
S11306B071F08E30914081F013C0C056DE4F83E557
S11306C088830EC0C056DE4F82E5888309C0C056B9
S11306D0DE4F82E4888304C0C056DE4F8CE48883F6
S11306E0225020936B02DF91CF910895CF93DF9333
S11306F0CDB7DEB72A970FB6F894DEBF0FBECDBFD5
S113070010E00E94530462E370E082E390E00E94F0
S1130710410A82E390E00E94CF0A61E0CE01019693
S11307200E94270B01E089819A818536910508F49E
S1130730012FFF24F39489859A858536910508F461
S1130740F12E68E270E088E290E00E94410A88ECB1
S113075090E00E94CF0A61E0CE0101960E94270B2F
S11307608B819C81893C910568F42D813E81293CD3
S1130770310550F441E02F813885293C310528F4B6
S1130780412F03C041E001C041E08935924050F05F
S11307908D819E818935924028F08F819885893595
S11307A09240A0F46F2D802F0E941103082F0E9405
S11307B0010580916B02E82FF0E0ED55FE4F0083B8
S11307C08F5F80936B020E941F039BCF0F2EF0ED6F
S11307D08F2EF7E09F2EA12CB12CF02D60E070E05D
S11307E080E090E00E94410A1EC00E94070BA50110
S11307F094010E94A110683E73408105910578F42C
S11308000E94480987E391E00E94570961E080E073
S11308100E948B098FE291E00E94570904C08EE187
S113082090E00E94CF0A80E10E94840A8823E9F2C2
S113083080E10E94840A8111FBCF88EE93E00E943C
S1130840CF0A80916B02882359F10F2EF3EAEF2E21
S1130850F1E0FF2EF02D00E010E00E94530462E36B
S113086070E082E390E00E94410A82E390E00E94FB
S1130870CF0A68E270E088E290E00E94410A88ECC6
S113088090E00E94CF0AF70181917F010E94010547
S11308900F5F1F4F80916B0290E008171907ECF26D
S11308A00E9453049BCF2F923F924F925F926F927C
S11308B07F928F929F92AF92BF92CF92DF92EF92EC
S11308C0FF920F931F93CF93DF93CDB7DEB72A9791
S11308D00FB6F894DEBF0FBECDBF00E010E0812C50
S11308E0912C54010F2EF0E14F2EF7E25F2E612C74
S11308F0712CF02D0F2EF4E1CF2ED12CF02D0F2ED4
S1130900F4EC3F2EF02D22242A9461E0CE010196CE
S11309100E94270B805D97407C01092E000CAA0BD6
S1130920BB0B880E991EAA1EBB1EC701801B910B10
S11309308C01000F111F080F191F112314F40F5FEE
S11309401F4F15950795C501B401A30192010E949B
S1130950C310200F311FC701B6010E948D10260F4E
S1130960371F2D33310514F02CE330E0C901843CEA
S11309702FEF920714F4832D922D992334F46CE312
S113098070E0CC960E94410A08C06CE370E0681BDA
S1130990790B8CE390E00E94410A8B819C81843620
S11309A0910550F48D819E818436910528F48F81C0
S11309B098858436910560F089819A81893C9105F6
S11309C038F489859A85893C910510F487019DCF77
S11309D02A960FB6F894DEBF0FBECDBFDF91CF913C
S11309E01F910F91FF90EF90DF90CF90BF90AF9049
S11309F09F908F907F906F905F904F903F902F903B
S1130A0008958C3429F0823571F0823409F516C0CA
S1130A1060E570E080EB9FEF0E94410A88EC90E073
S1130A200E94CF0A089560EB7FEF80E590E00E947A
S1130A30410A88EC90E00E94CF0A089560EB7FEFB2
S1130A4080E590E00E94410A80E991E00E94CF0A8B
S1130A50089590914501E0914001F091410199235D
S1130A6011F0849101C080812FEB280F2A3110F4FA
S1130A70805E0895803249F49F012F5F3F4F309389
S1130A80410120934001EF2B31F708951F93CF9339
S1130A90DF930E942905C0E0D0E01AE090ED980FA2
S1130AA09A30B8F49E01129FE001139FD00D1124D7
S1130AB0C80FD11D87FDDA95E09780914001909190
S1130AC04101019690934101809340010E942905C0
S1130AD0E5CFCE01DF91CF911F91089510926F0061
S1130AE083E28093800081E18093810010928200F0
S1130AF080E197E2909389008093880010928B00A4
S1130B0010928A00229A789408958F929F92AF92BD
S1130B10BF92DF92EF92FF920F931F93CF93DF93D5
S1130B205C018B01D42E80914201811105C081E0CA
S1130B30809342010E946E0510920901B7FE05C020
S1130B40E894B7F82AE0F22E02C0FF24F394E09070
S1130B5081002E2D287FE22E48ECF49EC001112442
S1130B608A159B05E0F4E50151E1A51657E2B506A7
S1130B7010F0C0E1D7E2BE017695679580E090E081
S1130B806058794687469F4F4E01A12CB12CA50190
S1130B9094010E94A11059018E2D816024C0C8E2E5
S1130BA0FC9EC02D1124D0E0CA15DB0508F4E50134
S1130BB0BE01769567959E0140E050E08AE0F81208
S1130BC007C080E090E0605E734481449F4F06C09C
S1130BD080E090E060537D4E8C4E9F4F0E94A110A8
S1130BE059018E2D8260882E2AE0F21207C0CE01B0
S1130BF005966AE070E00E947910EB01C83E43E07C
S1130C00D40759F09801DE010E94E21028EE33E087
S1130C1040E050E00E94C310890110926F0080925E
S1130C208100B0928900A0928800209188003091C0
S1130C3089004D2D403108F04FE080E190E0841BA5
S1130C409109A90102C0569547958A95E2F75093F8
S1130C508B0040938A00109348010093470186B3A8
S1130C608FEF86BB81E080936F00DF91CF911F915E
S1130C700F91FF90EF90DF90BF90AF909F908F9077
S1130C800895CF93DF93EB018F3F11F0411105C01D
S1130C9040E0BE0188EE93E043C0813130F050EF74
S1130CA0580F503618F05FE501C050E0852F6CE016
S1130CB00E946D10682F74EF760390011124250FA4
S1130CC0311D2C30310540F4F901EE0FFF1FEE5EAB
S1130CD0FE4F2081318102C020E030E0873081F076
S1130CE0082E02C0220F331F0A94E2F7823028F044
S1130CF0C90105966AE070E00CC0C90190580CC0A7
S1130D00C90136E0880F991F3A95E1F7029665E02C
S1130D1070E00E947910CB01403108F04FE0BE0131
S1130D200E948505DF91CF910895A2E0B0E0EBE940
S1130D30F6E00C94061190900801809144018823F8
S1130D4021F060914301611117C077247394B0ECD2
S1130D50AB2EBDE5BB2E1AE0612E04E0802E80EDA3
S1130D60C82E87E0D82E94E0E92EF12C04EF11E090
S1130D702FE0422E512C15C070E040E088EE93E045
S1130D800E9485051092430117C18636D4F5813639
S1130D9009F4A9C07CF58C3309F460C08E3381F466
S1130DA093940E94290520914001309141012F5FC5
S1130DB03F4F3093410120934001853631F752C0B3
S1130DC0813209F08BC080920801D0920701C09251
S1130DD00601F0920501E0920401109303010093CF
S1130DE00201509201014092000110924401A4E0DA
S1130DF09A2ED7CF8336A1F10CF478C010E082E0AC
S1130E0077C08D36C1F194F4873691F174F18C3644
S1130E1009F064C00E944605BC01909305018093CB
S1130E200401809106019091070151C08237C9F1F4
S1130E304CF48F3609F052C00E944605982E8093D8
S1130E400801AFCF843781F1863709F047C00E948B
S1130E5046059093010180930001A3CF9A94A1CFFA
S1130E6010E020C010E084E043C010E085E040C002
S1130E7010E087E03DC00E9429058C3619F41092D9
S1130E80440104C070924401109243012091400136
S1130E90309141012F5F3F4F309341012093400136
S1130EA080CF11E080E024C00E944605BC01C5014A
S1130EB00E947910669EC001679E900D1124909344
S1130EC007018093060160910401709105010E945D
S1130ED07910709303016093020163CF1092410172
S1130EE01092400169C010E089E002C010E08BE07C
S1130EF0082F9CE0999E000D11240E942905982F2B
S1130F00977F933261F420914001309141012F5F2A
S1130F103F4F30934101209340010F5FEECF8D325C
S1130F2071F420914001309141012F5F3F4F309384
S1130F3041012093400101500E942905F0CF6091A6
S1130F400201709103018153883050F4E09006014E
S1130F50F09007010E944605BC01C7010E94791068
S1130F607B01F694E79469837A830E942905698159
S1130F707A818E3269F420914001309141012F5FD2
S1130F803F4F30934101209340016E0D7F1DE9CF07
S1130F9080914401882339F09B013695279520934D
S1130FA04301621B710940910001112311F08FEF7D
S1130FB001C0802F0E9441062296E0E10C94221188
S1130FC01F920F920FB60F9211242F933F934F93BA
S1130FD05F936F937F938F939F93AF93BF93EF939D
S1130FE0FF9380914701909148019C012150310960
S1130FF03093480120934701892B11F510926F001B
S1131000789480918100887F81608093810080E161
S113101097E2909389008093880010928B0010923D
S11310208A0081E0809309018091400190914101FF
S1131030892B31F080914601811102C00E949506EE
S1131040FF91EF91BF91AF919F918F917F916F919C
S11310505F914F913F912F910F900FBE0F901F9072
S1131060189510926F00909341018093400181E0A4
S113107080934501109243010E94950608950E94B1
S11310803108089581E090E06F9364E06A95F1F788
S11310906F910197C9F708950F931F93CF93DF932F
S11310A01AB157985A98289AC0E0D0E00E94420892
S11310B05C9A0E94420809B15C980E9442085C9ABA
S11310C00E9442085C98249607FF10C0AE0160E0BD
S11310D070E08091490190914A01A0914B01B09137
S11310E04C01481759076A077B0700F31AB9DF91C7
S11310F0CF911F910F91089595B1282F217030E061
S1131100220F331F482F467068E0469FA001112428
S1131110242B9D7C292B25B99BB188708295807FD7
S11311209F77892B8BB95C9A0E9442085C980E9435
S113113042080895A0E0B0E0E0EAF8E00C940F1152
S1131140C82FD62EE42E80916C02811105C081E057
S113115080936C020E94E0080E944C0814B1D5B13F
S1131160FAB00BB12898DD2011F05A9A01C05A98B0
S113117094B1926394B9579A81E0E81629F08C2FC0
S113118082958F700E947C088C2F8F700E947C083F
S1131190FAB80BB914B9D5B9CDB7DEB7E7E00C94FA
S11311A02B1142E060E00E949A08089542E061E059
S11311B00E949A08089541E060E00E949A08089508
S11311C080E197E2A0E0B0E08093490190934A0166
S11311D0A0934B01B0934C01529A209A549A8EE1F9
S11311E090E00E94CF0A83E00E94DB0886E090E052
S11311F00E94CF0A83E00E94DB0882E090E00E9414
S1131200CF0A83E00E94DB0882E090E00E94CF0ACC
S113121082E00E94DB0882E090E00E94CF0A88E22C
S11312200E94D10888E00E94D10881E00E94D10880
S113123086E00E94D1088CE00E94D108089581E0E4
S11312400E94D10880914F0190915001892BF9F0AF
S113125060E0A0E2262F30E070910A0180910B013A
S113126090E00197789FA001799F500D11242417D5
S113127035074CF4E0914F01F0915001E20FF31F58
S1131280A0836F5FE7CF10924D0110924E01089535
S11312900E941F090895CF93DF93EC01899188235D
S11312A019F00E94D608FACFDF91CF9108950E94D9
S11312B04B090895CF93DF93EC01FE0184918823B9
S11312C021F00E94D6082196F8CFDF91CF9108959E
S11312D00E945A090895A5E0B0E0E1E7F9E00C9412
S11312E01311182F80E8898380EC8A8384E98B8327
S11312F084ED8C83FE01E60FF11D8181810F6D83E6
S11313000E94D10810934D016D8160934E01259682
S1131310E3E00C942F110E946B090895883058F46F
S113132091E001C0990F8A95EAF7892FAAE2B0E00B
S1131330EBE2F0E021C08E3060F498EF980F81E08A
S113134001C0880F9A95EAF7A4E2B0E0E5E2F0E084
S113135013C0853160F492EF980F81E001C0880FCB
S11313609A95EAF7A7E2B0E0E8E2F0E005C080E091
S1131370A0E0B0E0E0E0F0E06F3F19F4908198273E
S113138009C0662319F09081982B04C02081982FFE
S11313909095922390839C91982B9C93089583EF2E
S11313A08093B00084BD82E08093B10085BD10922B
S11313B0B4001092B30018BC17BC60E086E00E9431
S11313C08E0960E085E00E948E0960E08BE00E9457
S11313D08E0960E083E00E948E09089580916D0279
S11313E0811105C081E080936D020E94CF090895A8
S11313F0CF93DF93EC010E94EE09D7FF05C0D1958E
S1131400C195D10981E001C080E0CF3FD10519F039
S113141014F0CFEFD0E0882319F018BCC7BD02C088
S1131420C8BD17BCDF91CF910895CF93DF93EC0132
S11314300E94EE09D7FF05C0D195C195D10981E07D
S113144001C080E0CF3FD10519F014F0CFEFD0E018
S1131450882329F01092B400C093B30004C0C09351
S1131460B4001092B300DF91CF910895CF93DF932E
S1131470EB010E94F809CE010E94150ADF91CF9179
S113148008950E94360A089584B18D7C84B985B18B
S1131490826385B985E090E06F9364E06A95F1F723
S11314A06F910197C9F7089580916E02811105C06B
S11314B081E080936E020E94440A0895CF93C82F5E
S11314C00E94540A83B18C23E9F38AE090E00E94DD
S11314D0CF0A83B18C23B1F383B18C23CF910895C8
S11314E00E945E0A0895A1E0B0E0E9E7FAE00C94F6
S11314F0141189830E94540A93B190958981892398
S11315002196E2E00C9430110E94730A08952F9200
S11315108F939F932FB68091580190915901019612
S1131520809358019093590190E080915A01891F4A
S113153080935A01909152019C5F90935201809143
S1131540510180519742C0F0909352018093510110
S1131550809153019091540101968093530190938B
S1131560540190E080915501891F80935501809129
S11315705601891F809356012FBE9F918F912F9002
S1131580189528EE33E0019748F0F9016F9364E071
S11315906A95F1F76F913197C9F7F5CF08950E94D5
S11315A0C10A0895E0E7F0E080818E7F8083A0EB9C
S11315B0B0E08C9183608C93A1EBB0E08C91807F40
S11315C08C938C9182608C93B89A808181608083A3
S11315D07894089580916F02811105C081E0809311
S11315E06F020E94D20A08950E94EA0AE0E7F0E03E
S11315F080818E7F8083609153017091540180912A
S113160055019091560120812160208308950E9404
S1131610F40A08950E94EA0AE0E7F0E080818E7FF0
S1131620808310925301109254011092550110922C
S11316305601109252011092510180818160808381
S11316400895682F8BE591E00E94090F0895462FB5
S113165020E0BC018BE591E00E94DA0F08950F931E
S1131660CF93DF9300D000D01F92CDB7DEB79C019B
S113167085E0EAE2F1E0DE01119601900D928A958F
S1131680E1F7662311F00FEF01C003E145E0BE016D
S11316906F5F7F4F8BE591E00E94010C8BE591E039
S11316A00E94D80B0E940A0B0F900F900F900F907E
S11316B00F90DF91CF910F91089560E00E942F0B5E
S11316C008958BE591E00E944F1008956F9364E0B4
S11316D06A95F1F76F910197C9F70895FC0111829A
S11316E0108213821282158214821682683068F482
S11316F089E290E0918380838BE290E093838283FC
S11317008AE290E0958384831FC06E3070F483E294
S113171090E09183808385E290E09383828384E2E6
S113172090E09583848368500FC0653198F486E215
S113173090E09183808388E290E09383828387E2C0
S113174090E0958384836E5081E001C0880F6A9590
S1131750EAF786830895A7E0B0E0E1EBFBE00C94A0
S113176012118C01FC0111821082138212821582E3
S1131770148217821682613118F080E1808702C0DA
S1131780FC016087F801208B642FCE0101960E9432
S11317906E0B8F81F80181878B819C81938782876F
S11317A08D819E81958784872796E4E00C942E1181
S11317B0FC01A485B585109779F08C919185892BCE
S11317C08C93A285B3859C918185809589238C9384
S11317D088EC90E00E94660B0895FC01A485B58511
S11317E0109771F08C919185892B8C93A285B38588
S11317F08C919185892B8C9388EC90E00E94660BE8
S11318000895A7E0B0E0E7E0FCE00C9407117C0148
S11318104B01642F3901402F20E00E94AB0B87015C
S11318200F5B1F4FF80110826701F2E4CF0ED11C49
S1131830F60110825701F3E4AF0EB11CF5011082DA
S1131840F70177866686512CF7018085581650F586
S1131850652C712CF401E60DF71D6081CE01019613
S11318600E946E0B2F81F701E60DF71D218B8981F4
S11318709A81F301EE0FFF1FEE0DFF1D92A381A3CA
S11318808332910511F4F80108C08632910511F4F0
S1131890F60103C0899721F4F5018081822B8083AE
S11318A05394D2CF2796EFE00C942311A0E0B0E03C
S11318B0ECE5FCE00C940911EC015B016C0181E4A2
S11318C0C80ED11CF60180807E01F2E4EF0EF11CFB
S11318D0F70170808E010D5B1F4FF801908080E04E
S11318E09885891748F4F501E80FF11DE80FF11DFB
S11318F0118210828F5FF4CF84B1F6019081892B1D
S113190084B987B1F7019081892B87B98AB1F8012D
S11319109081892B8AB985B1F6019081892B85B98B
S113192088B1F7019081892B88B98BB1F801908136
S1131930892B8BB98AE090E00E94660B94B1F60182
S113194080818095892384B997B1F701808180953E
S1131950892387B99AB1F8018081809589238AB94E
S113196095B1F60180818095892385B998B1F701F5
S113197080818095892388B99BB1F8018081809505
S113198089238BB9E090B000D090B1008091B00071
S113199083608093B00082E08093B1004091B200F4
S11319A080E090E02E853F858217930720F5C09054
S11319B0B2002C2D241B820F911D03B1081132C0DB
S11319C0F6B0F7102FC029B129112CC010C0212F57
S11319D030E0A901440F551FF501E40FF51F6081A4
S11319E07181672B21F11F5F2885121780F37F2CEB
S11319F0802E4C2DD7CFE092B000D092B10020E0E1
S1131A008885281730F5F501E20FF11DE20FF11D6D
S1131A1080819181892B21F48E859F859183808398
S1131A202F5FEECF03B1F6B099B010E0DDCFDE0149
S1131A30A40FB51F91960D90BC91A02D4C91DE0181
S1131A40A20FB31F51962C91422369F69183808390
S1131A50CACFCDB7DEB7EDE00C942511EF92FF921B
S1131A600F931F93CF93DF93FC019B01F0907C00B5
S1131A7000917A0047B118B180917A0086FDFCCFBD
S1131A8080E09085891748F4D901A80FB11DA80FEB
S1131A90B11D1D921C928F5FF4CF97B182A18095E6
S1131AA0892387B998B182A18095892388B987E869
S1131AB080937A00E12C81A1E81610F0E12C29C072
S1131AC050E08085581718F5A52FB0E0EF01CA0F34
S1131AD0DB1F8989806480937C0080917A00806414
S1131AE080937A0080917A0086FDFCCF6091780023
S1131AF070917900AA0FBB1FA20FB31F8D919C9107
S1131B001197860F971F8D939C935F5FDACFE394B1
S1131B10D2CF8085E816A0F4E901CE0DD11DCE0DFB
S1131B20D11D61A170E0CB0195958795A881B981FC
S1131B308A0F9B1F0E94791079836883E394E9CF0D
S1131B40F0927C0000937A0018B947B9CDB7DEB79C
S1131B50E6E00C942C11A0E2B0E0E1EBFDE00C9483
S1131B600F118C017B01D42E8FEF840F823018F477
S1131B70C8010E94ED0BD80150968C91B7018111D8
S1131B8010C0C8010E94560CC8010E94D80BB2E0D4
S1131B90DB123AC0BE016F5F7F4FC8010E94560C32
S1131BA00FC0C8010E942E0DC8010E94D80BE2E0AC
S1131BB0DE122AC0BE016F5F7F4FC8010E942E0D46
S1131BC040E0F80180854817F8F4842F90E0880FEE
S1131BD0991FF701E80FF91F21E030E02C0F3D1F9A
S1131BE0820F931FD8011E962D913C911F97DC0103
S1131BF08D919C91281B390B80819181820F931FB9
S1131C00918380834F5FDDCFA096E7E00C942B1186
S1131C102F923F925F926F927F928F929F92AF9298
S1131C20BF92CF92DF92EF92FF920F931F93CF93C5
S1131C30DF93CDB7DEB7C056D1090FB6F894DEBF37
S1131C400FBECDBF8C014B015A01522EDA018D918A
S1131C509C91892B31F0F40180819181892BF1F4DD
S1131C6024C0D80118968C9190E0880F991F0E9487
S1131C704111F50191838083009709F4B1C0FC01FF
S1131C8020E030E0D80118968C9190E028173907AD
S1131C9014F7119211922F5F3F4FF4CFE12CF12CE6
S1131CA06E01B1E2CB0ED11C21C0F801808590E019
S1131CB0880F991F0E944111D4018D939C93009722
S1131CC009F48EC0FC0120E030E0D80118968C9114
S1131CD090E02817390714F7D8011E968D919C912E
S1131CE01F97819391932F5F3F4FEFCF452DBE01F7
S1131CF06F5B7F4FC8010E94AB0DF8016084712CAB
S1131D00FE01EF5BFF4FC6019E012F5F3F4F19019C
S1131D1020E030E0261537054CF5E114F10489F094
S1131D20DC016D917C91408151816417750748F005
S1131D30D1016D917C91408151814617570748F03C
S1131D400DC040815181DC014D935C93E114F10499
S1131D5079F740815181D1014D935C932F5F3F4FBF
S1131D60B2E02B0E311C32960296D4CFEFEFEE1A6E
S1131D70FE0AFAE0EF16F10409F0B8CF9E012F5FD6
S1131D803F4F7901360180E090E0F801208530E092
S1131D90821793072CF5D7012D913D917D01B30155
S1131DA06C197D09D501ED91FC91E60FF71F408177
S1131DB051814217530710F431832083F301219199
S1131DC031913F01D401ED91FC91E60FF71F408161
S1131DD051812417350710F4318320830196D5CF20
S1131DE0C05ADF4F0FB6F894DEBF0FBECDBFDF91F0
S1131DF0CF911F910F91FF90EF90DF90CF90BF9004
S1131E00AF909F908F907F906F905F903F902F90B6
S1131E1008951F93CF93DF93EC01162F8FEF860F56
S1131E20823018F0662359F014C021E0AE014E5FF1
S1131E305F4FBE01CE010E94080E123051F4AE0174
S1131E404A5F5F4FBE016C5F7F4F20E0CE010E946E
S1131E50080EDF91CF911F910895A0E0B0E0E3E375
S1131E60FFE00C940D11EC018B01B42E842F8D7FB7
S1131E7051F48C819D81892B09F497C08E819F81B7
S1131E80892B09F492C08FEF8B0D823050F4888136
S1131E909981892B09F489C08A819B81892B09F452
S1131EA084C04B2DB801CE010E94AB0D780100E037
S1131EB010E0C12CD12C888590E0C816D9060CF00E
S1131EC074C081E0B8120AC0EA81FB81E00FF11FFF
S1131ED00190F081E02DA881B9810DC08C819D8194
S1131EE02E813F81B1100CC0F901E00FF11F019068
S1131EF0F081E02DDC01A00FB11F8D919C9128C0D1
S1131F00FC01E00FF11F40815181E881F981E00F6C
S1131F10F11F80819181EE85FF854817590710F4E0
S1131F20CF0104C08E0F9F1F841B950BD901A00FF6
S1131F30B11F2D913C91AA81BB81A00FB11F4D917E
S1131F405C912417350720F0E40FF51FE21BF30B17
S1131F50E81BF90BA9F0D7012D913C9140E050E02A
S1131F60281B390B41095109A8EEB3E00E94F11076
S1131F709F0140E050E00E94C31037FD0AC002C038
S1131F8020E030E0293EB3E03B072CF028EE33E0BC
S1131F9002C020E030E0F701219331937F01FFEF8D
S1131FA0CF1ADF0A0E5F1F4F86CFCDB7DEB7E9E049
S1131FB00C942911A0E0B0E0E0EEFFE00C940411D1
S1131FC0EC018B01822E0E942D0F2884E801412C04
S1131FD0512C320100E010E0C12CD12C7601312CBF
S1131FE0912C58EEA52E53E0B52E921421F1E991CF
S1131FF0F991882021F0C5018E1B9F0BFC01E93C5F
S1132000F10524F4E333F10574F002C0332433946E
S1132010DF01A30192010E94FC10C60ED71EE81E28
S1132020F91E0E0F1F1F939498EE490E93E0591E4C
S1132030611C711CDACF31101EC0492D50E0415093
S1132040510924EF31E0429FC001439F900D529FFC
S1132050900D112420919F013091A0012817390778
S1132060B4F088EE93E0489F9001499F300D589F4B
S1132070300D11240EC0980140E050E0C701B601B4
S11320800E94A1103093A00120939F0102C020E080
S113209030E0C901CDB7DEB7E2E10C942011CF9353
S11320A0DF93EC018A819B81009711F00E94D91182
S11320B08E819F81009711F00E94D91188819981A6
S11320C0009711F00E94D9118C819D81009711F025
S11320D00E94D911DF91CF910895991B79E004C032
S11320E0991F961708F0961B881F7A95C9F7809553
S11320F00895AA1BBB1B51E107C0AA1FBB1FA6174B
S1132100B70710F0A61BB70B881F991F5A95A9F79C
S113211080959095BC01CD01089597FB072E16F488
S1132120009407D077FD09D00E94791007FC05D0F0
S11321303EF4909581959F4F0895709561957F4FDA
S11321400895A1E21A2EAA1BBB1BFD010DC0AA1FF4
S1132150BB1FEE1FFF1FA217B307E407F50720F00C
S1132160A21BB30BE40BF50B661F771F881F991F87
S11321701A9469F760957095809590959B01AC01D0
S1132180BD01CF010895052E97FB1EF400940E9413
S1132190DA1057FD07D00E94A11007FC03D04EF4BB
S11321A00C94DA1050954095309521953F4F4F4F40
S11321B05F4F089590958095709561957F4F8F4FEF
S11321C09F4F0895A29FB001B39FC001A39F700DBC
S11321D0811D1124911DB29F700D811D1124911D2B
S11321E008950E94E210A59F900DB49F900DA49FA6
S11321F0800D911D11240895B7FF0C94F1100E94D5
S1132200F110821B930B08952F923F924F925F928D
S11322106F927F928F929F92AF92BF92CF92DF92F2
S1132220EF92FF920F931F93CF93DF93CDB7DEB757
S1132230CA1BDB0B0FB6F894DEBF0FBECDBF0994EB
S11322402A88398848885F846E847D848C849B8442
S1132250AA84B984C884DF80EE80FD800C811B8150
S1132260AA81B981CE0FD11D0FB6F894DEBF0FBE7F
S1132270CDBFED010895EE0FFF1F0590F491E02D01
S113228009940F931F93CF93DF938230910510F439
S113229082E090E0E0917202F091730220E030E07D
S11322A0A0E0B0E0309719F140815181028113819F
S11322B048175907C8F08417950769F4109731F047
S11322C012960C93129713961C9327C000937202D4
S11322D01093730222C02115310519F042175307D8
S11322E018F49A01BD01EF01DF01F801DBCF2115DC
S11322F03105F9F0281B390B2430310580F48A812B
S11323009B816115710521F0FB019383828304C0D5
S11323109093730280937202FE01329644C0FE01D0
S1132320E20FF31F8193919322503109398328835B
S11323303AC02091700230917102232B41F4209114
S11323400E0130910F01309371022093700220919D
S11323500C0130910D012115310541F42DB73EB723
S11323604091100150911101241B350BE091700232
S1132370F0917102E217F307A0F42E1B3F0B28170C
S1132380390778F0AC014E5F5F4F2417350748F0EA
S11323904E0F5F1F5093710240937002819391938B
S11323A002C0E0E0F0E0CF01DF91CF911F910F91E7
S11323B00895CF93DF93009709F481C0FC0132970D
S11323C013821282A0917202B0917302109781F469
S11323D020813181820F931F20917002309171020C
S11323E02817390751F5F0937102E093700267C022
S11323F0ED0120E030E0CE17DF0740F44A815B8135
S11324009E0141155105F1F0EA01F5CFD383C28352
S113241040815181840F951FC817D90759F48881C9
S11324209981840F951F0296918380838A819B8171
S1132430938382832115310529F4F0937302E09389
S113244072023DC0E901FB83EA8349915991C40FAB
S1132450D51FEC17FD0761F480819181840F951FCE
S11324600296E90199838883828193819B838A837D
S1132470E0E0F0E012968D919C911397009719F08B
S1132480FD01DC01F7CF8D919C9111979D012E5F89
S11324903F4F820F931F20917002309171022817D1
S11324A0390769F4309729F410927302109272027A
S11324B002C013821282B0937102A0937002DF9162
S11324C0CF91089512E0CEE7D2E004C0FE010E944D
S11124D03B112196CF37D107C9F7F894FFCFFF
S11324DE0F00F4010400D007040108020000740286
S11324EE20009C01B501CF01EA0107022602470232
S11324FE69028E02B502DE020A030E0F101112508B
S113250E72657373204200536F6C7665642100000C
S9030000FC
