:100000000C947F020C949C020C949C020C949C0215
:100010000C949C020C949C020C949C020C949C02E8
:100020000C949C020C94700A0C949C020C949C02FC
:100030000C949C020C94C9070C949C020C949C0296
:100040000C949C020C949C020C949C020C949C02B8
:100050000C949C020C949C020C949C020C949C02A8
:100060000C949C020C949C02763132204C31362048
:100070006F35206565726572636538673872383C24
:100080006738723863382E3C6772383C65382E3CCE
:1000900061383C62383C622D3C61383C672E652EED
:1000A000672E6138666772653863643C62382E6318
:1000B000382E3C6772383C65382E3C61383C6238DB
:1000C0003C622D3C61383C672E652E672E61386698
:1000D0006772653863643C62382E723867662366DF
:1000E00064233865723C67233C6163723C616364DE
:1000F00072386766236664233865723E63383E63F0
:100100003E633472386766236664233865723C67E1
:10011000233C6163723C6163647238652D3872649C
:10012000382E633420763132204C3136206F352022
:100130006565726572636538673872383C67387216
:100140003863382E3C6772383C65382E3C61383C49
:1001500062383C622D3C61383C672E652E672E610B
:1001600038666772653863643C62382E63382E3CAB
:100170006772383C65382E3C61383C62383C622DF1
:100180003C61383C672E652E672E61386667726564
:100190003863643C62382E7238676623666423389D
:1001A00065723C67233C6163723C616364723867CB
:1001B00066236664233865723E63383E633E63346B
:1001C00072386766236664233865723C67233C6136
:1001D00063723C6163647238652D387264382E63D3
:1001E0003420763132204C3136206F3520656572EF
:1001F0006572636538673872383C673872386338BF
:100200002E3C6772383C65382E3C61383C62383C85
:10021000622D3C61383C672E652E672E613866671B
:1002200072653863643C62382E63382E3C677238DE
:100230003C65382E3C61383C62383C622D3C61386C
:100240003C672E652E672E61386667726538636479
:100250003C62382E72386766236664233865723CC8
:1002600067233C6163723C6163647238676623662E
:1002700064233865723E63383E633E633472386788
:1002800066236664233865723C67233C6163723C75
:100290006163647238652D387264382E6334207659
:1002A0003132204C3136206F3520656572657263BE
:1002B0006538673872383C6738723863382E3C6767
:1002C00072383C65382E3C61383C62383C622D3CCB
:1002D00061383C672E652E672E6138666772653817
:1002E00063643C62382E63382E3C6772383C653854
:1002F0002E3C61383C62383C622D3C61383C672EB4
:10030000652E672E6138666772653863643C6238B3
:100310002E72386766236664233865723C67233C17
:100320006163723C61636472386766236664233874
:1003300065723E63383E633E633472386766236697
:1003400064233865723C67233C6163723C6163647B
:100350007238652D387264382E633420763132203D
:100360004C3136206F35206565726572636538677C
:100370003872383C6738723863382E3C6772383CC4
:1003800065382E3C61383C62383C622D3C61383C1B
:10039000672E652E672E6138666772653863643C28
:1003A00062382E63382E3C6772383C65382E3C61CB
:1003B000383C62383C622D3C61383C672E652E67C4
:1003C0002E6138666772653863643C62382E723815
:1003D0006766236664233865723C67233C616372F9
:1003E0003C61636472386766236664233865723ED5
:1003F00063383E633E63347238676623666423382D
:1004000065723C67233C6163723C6163647238656A
:100410002D387264382E633420763132204C3136D8
:10042000206F35206565726572636538673872388C
:100430003C6738723863382E3C6772383C65382E1A
:100440003C61383C62383C622D3C61383C672E652B
:100450002E672E6138666772653863643C62382E99
:1004600063382E3C6772383C65382E3C61383C62FC
:10047000383C622D3C61383C672E652E672E613812
:10048000666772653863643C62382E72386766232B
:100490006664233865723C67233C6163723C616328
:1004A0006472386766236664233865723E63383E3B
:1004B000633E633472386766236664233865723C32
:1004C00067233C6163723C6163647238652D3872E6
:1004D00064382E633400566976656B20502E0050C8
:1004E000726F6A6563742062793A00536F6C766943
:1004F0006E6700337069204D617A65004A0B1124E4
:100500001FBECFEFD8E0DEBFCDBF11E0A0E0B1E06D
:10051000E0EBF4E202C005900D92AE33B107D9F7DB
:1005200022E0AEE3B1E001C01D92A237B207E1F7CD
:100530000E941A030C944B120C940000811106C007
:10054000411106C0611106C082E408958CE408954B
:1005500083E5089582E50895CF93DF9380ED97E0DA
:100560000E94460B83EF94E00E94510961E080E015
:100570000E9474098BEE94E00E94510980ED97E08F
:100580000E94B80A0E9431098FED94E00E9451093F
:1005900061E080E00E94740986ED94E00E945109B8
:1005A00088E690E00E94280880ED97E00E94B80A53
:1005B0000AC00E9431098FE291E00E94400984E65E
:1005C00090E00E94B80A80E10E946D0A882389F3B6
:1005D00080E10E94590A88EE93E00E94B80ACCEEAE
:1005E000DFEFC832D10538F068ED7FEF88E290E0A8
:1005F0000E942A0A06C068E270E088ED9FEF0E9420
:100600002A0A81E00E940A0B84E190E00E94B80A65
:100610002196CC33D10529F760E070E080E090E0CE
:100620000E942A0A80E10E94590A0E943109DF9142
:10063000CF9108950E94AC020E947603FFCFCF9322
:10064000DF9320916902233008F44DC0C22FD0E01F
:10065000FE01E156FE4F8081823409F044C0AE01B4
:10066000FA01EE55FE4F42565E4F60E070E0929107
:100670009C3441F0923519F0923449F406C0665A20
:100680007F4F05C0625F7E4F02C06C547F4FE417FE
:10069000F50769F7CB0168E671E00E9476108A35AC
:1006A000910581F01CF4892BD9F407C0843B910596
:1006B00071F08E30914081F013C0C256DE4F83E559
:1006C00088830EC0C256DE4F82E5888309C0C256B9
:1006D000DE4F82E4888304C0C256DE4F8CE48883F8
:1006E000225020936902DF91CF910895CF93DF9339
:1006F000CDB7DEB72A970FB6F894DEBF0FBECDBFD9
:1007000010E00E943C0462E370E082E390E00E940B
:100710002A0A82E390E00E94B80A61E0CE010196C5
:100720000E94100B01E089819A818536910508F4B9
:10073000012FFF24F39489859A858536910508F465
:10074000F12E68E270E088E290E00E942A0A88ECCC
:1007500090E00E94B80A8B819C81893C910568F4E5
:100760002D813E81293C310550F441E02F813885AF
:10077000293C310528F4412F03C041E001C041E08C
:100780008935924050F08D819E818935924028F0C4
:100790008F8198858935924048F46F2D802F0E9473
:1007A0009E020E94EA040E941F03ABCF0F2EF0EDC1
:1007B0008F2EF7E09F2EA12CB12CF02D1DC00E9492
:1007C000F00AA50194010E948A10683E73408105D9
:1007D000910570F40E94310987E391E00E9440097D
:1007E00061E080E00E9474098FE291E00E9440097C
:1007F0008EE190E00E94B80A80E10E946D0A8111AA
:10080000DECF80E10E946D0A8111FBCF88EE93E07C
:100810000E94B80A80916902882359F10F2EF1EAEB
:10082000EF2EF1E0FF2EF02D00E010E00E943C04DE
:1008300062E370E082E390E00E942A0A82E390E0A3
:100840000E94B80A68E270E088E290E00E942A0AFA
:1008500088EC90E00E94B80AF70181917F010E9424
:10086000EA040F5F1F4F8091690290E00817190793
:10087000ECF20E943C04C0CF2F923F924F925F92C5
:100880006F927F928F929F92AF92BF92CF92DF92A0
:10089000EF92FF920F931F93CF93DF93CDB7DEB705
:1008A0002A970FB6F894DEBF0FBECDBF00E010E070
:1008B000812C912C54010F2EF0E14F2EF7E25F2E88
:1008C000612C712CF02D0F2EF4E1CF2ED12CF02DB8
:1008D0000F2EF4EC3F2EF02D22242A9461E0CE015D
:1008E00001960E94100B805D97407C01092E000C40
:1008F000AA0BBB0B880E991EAA1EBB1EC701801B2C
:10090000910B8C01000F111F080F191F112314F4F4
:100910000F5F1F4F15950795C501B401A301920103
:100920000E94AC10200F311FC701B6010E94761043
:10093000260F371F2D33310514F02CE330E0C901A9
:10094000843C2FEF920714F4832D922D992334F4D5
:100950006CE370E0CC960E942A0A08C06CE370E059
:10096000681B790B8CE390E00E942A0A8B819C81A2
:100970008436910550F48D819E818436910528F44A
:100980008F8198858436910550F089819A81893CC0
:10099000910538F489859A85893C910510F4870181
:1009A0009DCF2A960FB6F894DEBF0FBECDBFDF9164
:1009B000CF911F910F91FF90EF90DF90CF90BF905C
:1009C000AF909F908F907F906F905F904F903F90EF
:1009D0002F9008958C3429F0823571F0823409F516
:1009E00016C060E570E080EB9FEF0E942A0A88EC59
:1009F00090E00E94B80A089560EB7FEF80E590E0F8
:100A00000E942A0A88EC90E00E94B80A089560EBE0
:100A10007FEF80E590E00E942A0A80E991E00E9441
:100A2000B80A089590914301E0913E01F0913F0191
:100A3000992311F0849101C080812FEB280F2A3176
:100A400010F4805E0895803249F49F012F5F3F4F7C
:100A500030933F0120933E01EF2B31F708951F9310
:100A6000CF93DF930E941205C0E0D0E01AE090ED32
:100A7000980F9A30B8F49E01129FE001139FD00D99
:100A80001124C80FD11D87FDDA95E09780913E01B2
:100A900090913F01019690933F0180933E010E9407
:100AA0001205E5CFCE01DF91CF911F9108951092ED
:100AB0006F0083E28093800081E180938100109237
:100AC000820080E197E290938900809388001092E1
:100AD0008B0010928A00229A789408958F929F92A8
:100AE000AF92BF92DF92EF92FF920F931F93CF933B
:100AF000DF935C018B01D42E80914001811105C0F0
:100B000081E0809340010E94570510920901B7FED1
:100B100005C0E894B7F82AE0F22E02C0FF24F3944F
:100B2000E09081002E2D287FE22E48ECF49EC0013B
:100B300011248A159B05E0F4E50151E1A51657E261
:100B4000B50610F0C0E1D7E2BE017695679580E06A
:100B500090E06058794687469F4F4E01A12CB12CFA
:100B6000A50194010E948A1059018E2D816024C034
:100B7000C8E2FC9EC02D1124D0E0CA15DB0508F4A4
:100B8000E501BE01769567959E0140E050E08AE060
:100B9000F81207C080E090E0605E734481449F4F8C
:100BA00006C080E090E060537D4E8C4E9F4F0E94C7
:100BB0008A1059018E2D8260882E2AE0F21207C019
:100BC000CE0105966AE070E00E946210EB01C83E1B
:100BD00043E0D40759F09801DE010E94CB1028EEC3
:100BE00033E040E050E00E94AC10890110926F00A9
:100BF00080928100B0928900A092880020918800A4
:100C0000309189004D2D403108F04FE080E190E0B7
:100C1000841B9109A90102C0569547958A95E2F770
:100C200050938B0040938A00109346010093450136
:100C300086B38FEF86BB81E080936F00DF91CF9109
:100C40001F910F91FF90EF90DF90BF90AF909F901A
:100C50008F900895CF93DF93EB018F3F11F04111F7
:100C600005C040E0BE0188EE93E043C0813130F022
:100C700050EF580F503618F05FE501C050E0852F57
:100C80006CE00E945610682F74EF760390011124D7
:100C9000250F311D2C30310540F4F901EE0FFF1FF7
:100CA000EE5EFE4F2081318102C020E030E08730CF
:100CB00081F0082E02C0220F331F0A94E2F782301F
:100CC00028F0C90105966AE070E00CC0C90190588F
:100CD0000CC0C90136E0880F991F3A95E1F70296DA
:100CE00065E070E00E946210CB01403108F04FE0F7
:100CF000BE010E946E05DF91CF910895A2E0B0E0A1
:100D0000E4E8F6E00C94EF10909008018091420125
:100D1000882321F060914101611117C077247394F9
:100D2000B0ECAB2EBDE5BB2E1AE0612E04E0802EA8
:100D300080EDC82E87E0D82E94E0E92EF12C04EF48
:100D400011E02FE0422E512C15C070E040E088EEFB
:100D500093E00E946E051092410117C18636D4F5CA
:100D6000813609F4A9C07CF58C3309F460C08E3358
:100D700081F493940E94120520913E0130913F012D
:100D80002F5F3F4F30933F0120933E01853631F76F
:100D900052C0813209F08BC080920801D0920701C5
:100DA000C0920601F0920501E09204011093030144
:100DB0000093020150920101409200011092420101
:100DC000A4E09A2ED7CF8336A1F10CF478C010E0BE
:100DD00082E077C08D36C1F194F4873691F174F1D9
:100DE0008C3609F064C00E942F05BC019093050168
:100DF00080930401809106019091070151C08237D0
:100E0000C9F14CF48F3609F052C00E942F05982E7C
:100E100080930801AFCF843781F1863709F047C04E
:100E20000E942F059093010180930001A3CF9A9413
:100E3000A1CF10E020C010E084E043C010E085E0C6
:100E400040C010E087E03DC00E9412058C3619F4C6
:100E50001092420104C0709242011092410120910F
:100E60003E0130913F012F5F3F4F30933F01209370
:100E70003E0180CF11E080E024C00E942F05BC011C
:100E8000C5010E946210669EC001679E900D1124EC
:100E90009093070180930601609104017091050110
:100EA0000E946210709303016093020163CF10925D
:100EB0003F0110923E0169C010E089E002C010E0DD
:100EC0008BE0082F9CE0999E000D11240E941205D2
:100ED000982F977F933261F420913E0130913F012A
:100EE0002F5F3F4F30933F0120933E010F5FEECFC6
:100EF0008D3271F420913E0130913F012F5F3F4FC1
:100F000030933F0120933E0101500E941205F0CF23
:100F100060910201709103018153883050F4E09098
:100F20000601F09007010E942F05BC01C7010E9435
:100F300062107B01F694E79469837A830E9412051C
:100F400069817A818E3269F420913E0130913F01AE
:100F50002F5F3F4F30933F0120933E016E0D7F1D69
:100F6000E9CF80914201882339F09B01369527957E
:100F700020934101621B710940910001112311F07E
:100F80008FEF01C0802F0E942A062296E0E10C9488
:100F90000B111F920F920FB60F9211242F933F93B4
:100FA0004F935F936F937F938F939F93AF93BF9371
:100FB000EF93FF9380914501909146019C01215050
:100FC00031093093460120934501892B11F5109288
:100FD0006F00789480918100887F81608093810088
:100FE00080E197E2909389008093880010928B00B3
:100FF00010928A0081E08093090180913E019091D6
:101000003F01892B31F080914401811102C00E947F
:101010007E06FF91EF91BF91AF919F918F917F914C
:101020006F915F914F913F912F910F900FBE0F9055
:101030001F90189510926F0090933F0180933E018E
:1010400081E080934301109241010E947E06089541
:101050000E941A08089581E090E06F9364E06A9519
:10106000F1F76F910197C9F708950F931F93CF93ED
:10107000DF931AB157985A98289AC0E0D0E00E949E
:101080002B085C9A0E942B0809B15C980E942B08DF
:101090005C9A0E942B085C98249607FF10C0AE0152
:1010A00060E070E08091470190914801A091490172
:1010B000B0914A01481759076A077B0700F31AB92C
:1010C000DF91CF911F910F91089595B1282F217035
:1010D00030E0220F331F482F467068E0469FA00182
:1010E0001124242B9D7C292B25B99BB188708295D6
:1010F000807F9F77892B8BB95C9A0E942B085C9824
:101100000E942B080895A0E0B0E0E9E8F8E00C9414
:10111000F810C82FD62EE42E80916A02811105C0E6
:1011200081E080936A020E94C9080E94350814B1C8
:10113000D5B1FAB00BB12898DD2011F05A9A01C050
:101140005A9894B1926394B9579A81E0E81629F0BD
:101150008C2F82958F700E9465088C2F8F700E9453
:101160006508FAB80BB914B9D5B9CDB7DEB7E7E061
:101170000C94141142E060E00E948308089542E05C
:1011800061E00E948308089541E060E00E948308C6
:10119000089580E197E2A0E0B0E08093470190934A
:1011A0004801A0934901B0934A01529A209A549A57
:1011B0008EE190E00E94B80A83E00E94C40886E0B5
:1011C00090E00E94B80A83E00E94C40882E090E0A8
:1011D0000E94B80A83E00E94C40882E090E00E9466
:1011E000B80A82E00E94C40882E090E00E94B80A37
:1011F00088E20E94BA0888E00E94BA0881E00E9452
:10120000BA0886E00E94BA088CE00E94BA080895E5
:1012100081E00E94BA0880914D0190914E01892B86
:10122000F9F060E0A0E2262F30E070910A01809191
:101230000B0190E00197789FA001799F500D112438
:10124000241735074CF4E0914D01F0914E01E20F67
:10125000F31FA0836F5FE7CF10924B0110924C01F8
:1012600008950E9408090895CF93DF93EC018991B6
:10127000882319F00E94BF08FACFDF91CF9108951B
:101280000E9434090895CF93DF93EC01FE0184910D
:10129000882321F00E94BF082196F8CFDF91CF91DB
:1012A00008950E9443090895A5E0B0E0EAE5F9E059
:1012B0000C94FC10182F80E8898380EC8A8384E9E1
:1012C0008B8384ED8C83FE01E60FF11D8181810FFC
:1012D0006D830E94BA0810934B016D8160934C019D
:1012E0002596E3E00C9418110E9454090895883063
:1012F00058F491E001C0990F8A95EAF7892FAAE284
:10130000B0E0EBE2F0E021C08E3060F498EF980F8F
:1013100081E001C0880F9A95EAF7A4E2B0E0E5E227
:10132000F0E013C0853160F492EF980F81E001C0C6
:10133000880F9A95EAF7A7E2B0E0E8E2F0E005C08E
:1013400080E0A0E0B0E0E0E0F0E06F3F19F49081D1
:10135000982709C0662319F09081982B04C020813A
:10136000982F9095922390839C91982B9C9308950D
:1013700083EF8093B00084BD82E08093B10085BD8F
:101380001092B4001092B30018BC17BC60E086E065
:101390000E94770960E085E00E94770960E08BE0B9
:1013A0000E94770960E083E00E94770908958091A8
:1013B0006B02811105C081E080936B020E94B80925
:1013C0000895CF93DF93EC010E94D709D7FF05C0A2
:1013D000D195C195D10981E001C080E0CF3FD10511
:1013E00019F014F0CFEFD0E0882319F018BCC7BD76
:1013F00002C0C8BD17BCDF91CF910895CF93DF9392
:10140000EC010E94D709D7FF05C0D195C195D1093C
:1014100081E001C080E0CF3FD10519F014F0CFEF9B
:10142000D0E0882329F01092B400C093B30004C028
:10143000C093B4001092B300DF91CF910895CF9381
:10144000DF93EB010E94E109CE010E94FE09DF91CA
:10145000CF9108950E941F0A089584B18D7C84B9AC
:1014600085B1826385B985E090E06F9364E06A9509
:10147000F1F76F910197C9F7089580916C0281117E
:1014800005C081E080936C020E942D0A0895CF93DD
:10149000C82F0E943D0A83B18C23E9F38AE090E0D3
:1014A0000E94B80A83B18C23B1F383B18C23CF910E
:1014B00008950E94470A0895A1E0B0E0E2E6FAE04C
:1014C0000C94FD1089830E943D0A93B19095898107
:1014D00089232196E2E00C9419110E945C0A089578
:1014E0002F928F939F932FB6809156019091570121
:1014F0000196809356019093570190E08091580196
:10150000891F80935801909150019C5F90935001E6
:1015100080914F0180519742C0F090935001809389
:101520004F01809151019091520101968093510198
:101530009093520190E080915301891F8093530151
:1015400080915401891F809354012FBE9F918F91E8
:101550002F90189528EE33E0019748F0F9016F932A
:1015600064E06A95F1F76F913197C9F7F5CF089567
:101570000E94AA0A0895E0E7F0E080818E7F8083D0
:10158000A0EBB0E08C9183608C93A1EBB0E08C91E8
:10159000807F8C938C9182608C93B89A80818160DB
:1015A00080837894089580916D02811105C081E057
:1015B00080936D020E94BB0A08950E94D30AE0E75F
:1015C000F0E080818E7F80836091510170915201A3
:1015D00080915301909154012081216020830895CE
:1015E0000E94DD0A08950E94D30AE0E7F0E08081BE
:1015F0008E7F8083109251011092520110925301FC
:10160000109254011092500110924F01808181601C
:1016100080830895682F89E591E00E94F20E089575
:10162000462F20E0BC0189E591E00E94C30F089598
:101630000F93CF93DF9300D000D01F92CDB7DEB7CA
:101640009C0185E0EAE2F1E0DE01119601900D9245
:101650008A95E1F7662311F00FEF01C003E145E041
:10166000BE016F5F7F4F89E591E00E94EA0B89E53B
:1016700091E00E94C10B0E94F30A0F900F900F900F
:101680000F900F90DF91CF910F91089560E00E942D
:10169000180B089589E591E00E94381008956F9322
:1016A00064E06A95F1F76F910197C9F70895FC011D
:1016B000118210821382128215821482168268307F
:1016C00068F489E290E0918380838BE290E09383D9
:1016D00082838AE290E0958384831FC06E3070F429
:1016E00083E290E09183808385E290E0938382831C
:1016F00084E290E09583848368500FC0653198F44C
:1017000086E290E09183808388E290E093838283F5
:1017100087E290E0958384836E5081E001C0880F5A
:101720006A95EAF786830895A7E0B0E0EAE9FBE06E
:101730000C94FB108C01FC01118210821382128226
:101740001582148217821682613118F080E1808739
:1017500002C0FC016087F801208B642FCE01019646
:101760000E94570B8F81F80181878B819C81938721
:1017700082878D819E81958784872796E4E00C94EB
:101780001711FC01A485B585109779F08C9191858E
:10179000892B8C93A285B3859C9181858095892323
:1017A0008C9388EC90E00E944F0B0895FC01A48577
:1017B000B585109771F08C919185892B8C93A285BA
:1017C000B3858C919185892B8C9388EC90E00E9455
:1017D0004F0B0895A7E0B0E0E0EFFBE00C94F010B1
:1017E0007C014B01642F3901402F20E00E94940BB3
:1017F00087010F5B1F4FF80110826701F2E4CF0EE3
:10180000D11CF60110825701F3E4AF0EB11CF501B3
:101810001082F70177866686512CF701808558166D
:1018200050F5652C712CF401E60DF71D6081CE0199
:1018300001960E94570B2F81F701E60DF71D218BB2
:1018400089819A81F301EE0FFF1FEE0DFF1D92A318
:1018500081A38332910511F4F80108C08632910505
:1018600011F4F60103C0899721F4F5018081822BE0
:1018700080835394D2CF2796EFE00C940C11A0E014
:10188000B0E0E5E4FCE00C94F210EC015B016C01CB
:1018900081E4C80ED11CF60180807E01F2E4EF0ED7
:1018A000F11CF70170808E010D5B1F4FF8019080D5
:1018B00080E09885891748F4F501E80FF11DE80FDD
:1018C000F11D118210828F5FF4CF84B1F6019081F7
:1018D000892B84B987B1F7019081892B87B98AB1A7
:1018E000F8019081892B8AB985B1F6019081892B05
:1018F00085B988B1F7019081892B88B98BB1F8013E
:101900009081892B8BB98AE090E00E944F0B94B1B3
:10191000F60180818095892384B997B1F701808190
:101920008095892387B99AB1F801808180958923B0
:101930008AB995B1F60180818095892385B998B1DE
:10194000F70180818095892388B99BB1F801808156
:10195000809589238BB9E090B000D090B100809140
:10196000B00083608093B00082E08093B10040912A
:10197000B20080E090E02E853F858217930720F526
:10198000C090B2002C2D241B820F911D03B10811B1
:1019900032C0F6B0F7102FC029B129112CC010C0E9
:1019A000212F30E0A901440F551FF501E40FF51F69
:1019B00060817181672B21F11F5F2885121780F3E9
:1019C0007F2C802E4C2DD7CFE092B000D092B1006A
:1019D00020E08885281730F5F501E20FF11DE20FB0
:1019E000F11D80819181892B21F48E859F859183C2
:1019F00080832F5FEECF03B1F6B099B010E0DDCF5A
:101A0000DE01A40FB51F91960D90BC91A02D4C91B5
:101A1000DE01A20FB31F51962C91422369F69183E8
:101A20008083CACFCDB7DEB7EDE00C940E11EF92F4
:101A3000FF920F931F93CF93DF93FC019B01F090D4
:101A40007C0000917A0047B118B180917A0086FD40
:101A5000FCCF80E09085891748F4D901A80FB11D0B
:101A6000A80FB11D1D921C928F5FF4CF97B182A178
:101A70008095892387B998B182A18095892388B9F7
:101A800087E880937A00E12C81A1E81610F0E12C20
:101A900029C050E08085581718F5A52FB0E0EF0158
:101AA000CA0FDB1F8989806480937C0080917A0053
:101AB000806480937A0080917A0086FDFCCF6091EB
:101AC000780070917900AA0FBB1FA20FB31F8D91F0
:101AD0009C911197860F971F8D939C935F5FDACF30
:101AE000E394D2CF8085E816A0F4E901CE0DD11D94
:101AF000CE0DD11D61A170E0CB0195958795A88190
:101B0000B9818A0F9B1F0E94621079836883E394D6
:101B1000E9CFF0927C0000937A0018B947B9CDB7AD
:101B2000DEB7E6E00C941511A0E2B0E0EAE9FDE0D2
:101B30000C94F8108C017B01D42E8FEF840F82302F
:101B400018F4C8010E94D60BD80150968C91B701A9
:101B5000811110C0C8010E943F0CC8010E94C10B36
:101B6000B2E0DB123AC0BE016F5F7F4FC8010E9436
:101B70003F0C0FC0C8010E94170DC8010E94C10B85
:101B8000E2E0DE122AC0BE016F5F7F4FC8010E94F3
:101B9000170D40E0F80180854817F8F4842F90E095
:101BA000880F991FF701E80FF91F21E030E02C0F93
:101BB0003D1F820F931FD8011E962D913C911F97B8
:101BC000DC018D919C91281B390B80819181820FC2
:101BD000931F918380834F5FDDCFA096E7E00C9445
:101BE00014112F923F925F926F927F928F929F92E9
:101BF000AF92BF92CF92DF92EF92FF920F931F931B
:101C0000CF93DF93CDB7DEB7C056D1090FB6F894A6
:101C1000DEBF0FBECDBF8C014B015A01522EDA013F
:101C20008D919C91892B31F0F40180819181892BD8
:101C3000F1F424C0D80118968C9190E0880F991F78
:101C40000E942A11F50191838083009709F4B1C0A5
:101C5000FC0120E030E0D80118968C9190E0281724
:101C6000390714F7119211922F5F3F4FF4CFE12CF7
:101C7000F12C6E01B1E2CB0ED11C21C0F8018085A0
:101C800090E0880F991F0E942A11D4018D939C9394
:101C9000009709F48EC0FC0120E030E0D8011896CE
:101CA0008C9190E02817390714F7D8011E968D9172
:101CB0009C911F97819391932F5F3F4FEFCF452DBD
:101CC000BE016F5B7F4FC8010E94940DF8016084D4
:101CD000712CFE01EF5BFF4FC6019E012F5F3F4F4E
:101CE000190120E030E0261537054CF5E114F10428
:101CF00089F0DC016D917C914081518164177507F9
:101D000048F0D1016D917C91408151814617570770
:101D100048F00DC040815181DC014D935C93E1148A
:101D2000F10479F740815181D1014D935C932F5F8C
:101D30003F4FB2E02B0E311C32960296D4CFEFEF1C
:101D4000EE1AFE0AFAE0EF16F10409F0B8CF9E0190
:101D50002F5F3F4F7901360180E090E0F801208548
:101D600030E0821793072CF5D7012D913D917D012D
:101D7000B3016C197D09D501ED91FC91E60FF71FB8
:101D8000408151814217530710F431832083F301BE
:101D9000219131913F01D401ED91FC91E60FF71FA4
:101DA000408151812417350710F431832083019637
:101DB000D5CFC05ADF4F0FB6F894DEBF0FBECDBFF0
:101DC000DF91CF911F910F91FF90EF90DF90CF9017
:101DD000BF90AF909F908F907F906F905F903F905B
:101DE0002F9008951F93CF93DF93EC01162F8FEF61
:101DF000860F823018F0662359F014C021E0AE013E
:101E00004E5F5F4FBE01CE010E94F10D123051F4C2
:101E1000AE014A5F5F4FBE016C5F7F4F20E0CE0195
:101E20000E94F10DDF91CF911F910895A0E0B0E0E5
:101E3000ECE1FFE00C94F610EC018B01B42E842F42
:101E40008D7F51F48C819D81892B09F497C08E81FF
:101E50009F81892B09F492C08FEF8B0D823050F453
:101E600088819981892B09F489C08A819B81892B7A
:101E700009F484C04B2DB801CE010E94940D780165
:101E800000E010E0C12CD12C888590E0C816D9065E
:101E90000CF074C081E0B8120AC0EA81FB81E00F47
:101EA000F11F0190F081E02DA881B9810DC08C81D6
:101EB0009D812E813F81B1100CC0F901E00FF11F0F
:101EC0000190F081E02DDC01A00FB11F8D919C915C
:101ED00028C0FC01E00FF11F40815181E881F981A8
:101EE000E00FF11F80819181EE85FF85481759072A
:101EF00010F4CF0104C08E0F9F1F841B950BD901D6
:101F0000A00FB11F2D913C91AA81BB81A00FB11FE1
:101F10004D915C912417350720F0E40FF51FE21B6B
:101F2000F30BE81BF90BA9F0D7012D913C9140E090
:101F300050E0281B390B41095109A8EEB3E00E947B
:101F4000DA109F0140E050E00E94AC1037FD0AC05B
:101F500002C020E030E0293EB3E03B072CF028EE41
:101F600033E002C020E030E0F701219331937F019C
:101F7000FFEFCF1ADF0A0E5F1F4F86CFCDB7DEB758
:101F8000E9E00C941211A0E0B0E0E9ECFFE00C9461
:101F9000ED10EC018B01822E0E94160F2884E801BF
:101FA000412C512C320100E010E0C12CD12C7601E3
:101FB000312C912C58EEA52E53E0B52E921421F120
:101FC000E991F991882021F0C5018E1B9F0BFC013E
:101FD000E93CF10524F4E333F10574F002C0332445
:101FE0003394DF01A30192010E94E510C60ED71EB3
:101FF000E81EF91E0E0F1F1F939498EE490E93E0F2
:10200000591E611C711CDACF31101EC0492D50E0E1
:102010004150510924EF31E0429FC001439F900D90
:10202000529F900D112420919D0130919E012817FF
:102030003907B4F088EE93E0489F9001499F300D36
:10204000589F300D11240EC0980140E050E0C701A8
:10205000B6010E948A1030939E0120939D0102C018
:1020600020E030E0C901CDB7DEB7E2E10C94091100
:10207000CF93DF93EC018A819B81009711F00E943E
:10208000C2118E819F81009711F00E94C211888138
:102090009981009711F00E94C2118C819D81009757
:1020A00011F00E94C211DF91CF910895991B79E040
:1020B00004C0991F961708F0961B881F7A95C9F7D8
:1020C00080950895AA1BBB1B51E107C0AA1FBB1F27
:1020D000A617B70710F0A61BB70B881F991F5A95B4
:1020E000A9F780959095BC01CD01089597FB072E27
:1020F00016F4009407D077FD09D00E94621007FC07
:1021000005D03EF4909581959F4F08957095619507
:102110007F4F0895A1E21A2EAA1BBB1BFD010DC023
:10212000AA1FBB1FEE1FFF1FA217B307E407F50787
:1021300020F0A21BB30BE40BF50B661F771F881F63
:10214000991F1A9469F760957095809590959B01F9
:10215000AC01BD01CF010895052E97FB1EF400943C
:102160000E94C31057FD07D00E948A1007FC03D0BD
:102170004EF40C94C31050954095309521953F4FE7
:102180004F4F5F4F089590958095709561957F4F63
:102190008F4F9F4F0895A29FB001B39FC001A39F8F
:1021A000700D811D1124911DB29F700D811D112490
:1021B000911D08950E94CB10A59F900DB49F900D86
:1021C000A49F800D911D11240895B7FF0C94DA107F
:1021D0000E94DA10821B930B08952F923F924F9228
:1021E0005F926F927F928F929F92AF92BF92CF92A7
:1021F000DF92EF92FF920F931F93CF93DF93CDB7B0
:10220000DEB7CA1BDB0B0FB6F894DEBF0FBECDBF27
:1022100009942A88398848885F846E847D848C84F8
:102220009B84AA84B984C884DF80EE80FD800C8101
:102230001B81AA81B981CE0FD11D0FB6F894DEBFE4
:102240000FBECDBFED010895EE0FFF1F0590F49175
:10225000E02D09940F931F93CF93DF938230910564
:1022600010F482E090E0E0917002F091710220E0C1
:1022700030E0A0E0B0E0309719F140815181028157
:10228000138148175907C8F08417950769F4109708
:1022900031F012960C93129713961C9327C000935B
:1022A00070021093710222C02115310519F04217F6
:1022B000530718F49A01BD01EF01DF01F801DBCFEC
:1022C00021153105F9F0281B390B2430310580F434
:1022D0008A819B816115710521F0FB0193838283C3
:1022E00004C09093710280937002FE01329644C044
:1022F000FE01E20FF31F819391932250310939833C
:1023000028833AC020916E0230916F02232B41F452
:1023100020910E0130910F0130936F0220936E02D5
:1023200020910C0130910D012115310541F42DB79B
:102330003EB74091100150911101241B350BE091E3
:102340006E02F0916F02E217F307A0F42E1B3F0B11
:102350002817390778F0AC014E5F5F4F2417350717
:1023600048F04E0F5F1F50936F0240936E028193AF
:10237000919302C0E0E0F0E0CF01DF91CF911F9197
:102380000F910895CF93DF93009709F481C0FC016A
:10239000329713821282A0917002B091710210974D
:1023A00081F420813181820F931F20916E02309140
:1023B0006F022817390751F5F0936F02E0936E0210
:1023C00067C0ED0120E030E0CE17DF0740F44A811E
:1023D0005B819E0141155105F1F0EA01F5CFD383F0
:1023E000C28340815181840F951FC817D90759F4C2
:1023F00088819981840F951F0296918380838A81B9
:102400009B81938382832115310529F4F093710216
:10241000E09370023DC0E901FB83EA834991599141
:10242000C40FD51FEC17FD0761F480819181840FE3
:10243000951F0296E90199838883828193819B830A
:102440008A83E0E0F0E012968D919C9113970097BB
:1024500019F0FD01DC01F7CF8D919C9111979D0141
:102460002E5F3F4F820F931F20916E0230916F02BB
:102470002817390769F4309729F4109271021092E5
:10248000700202C013821282B0936F02A0936E0298
:10249000DF91CF91089512E0CEE7D2E004C0FE01B3
:1024A0000E9424112196CF37D107C9F7F894FFCFA6
:1024B0000F00F4010400D0070401080200007202BA
:1024C00020009C01B501CF01EA0107022602470264
:1024D00069028E02B502DE020A030E0F10111250BD
:0E24E00072657373204200736F6C7665640042
:00000001FF
